:100000000C942A000C94F8090C94210A0C944A0AC6
:100010000C9447000C9447000C9447000C94470044
:100020000C9447000C9447000C94F90A0C94220B92
:100030000C9447000C9447000C9447000C94470024
:100040000C9447000C9447000C9447000C94470014
:100050000C94470011241FBECFE5D8E0DEBFCDBF12
:1000600010E0A0E6B0E0E4E8F9E102C005900D92EE
:10007000A23EB107D9F720E0A2EEB0E001C01D9288
:10008000A33FB207E1F70E944B0B0C94C00C0C94F9
:1000900000009091E30081E0911180E08093E30003
:1000A00060E081E00E94D30762E081E00E94D30714
:1000B00061E081E00C94D30760E081E00C94BD071F
:1000C00060E081E00C94D60760E081E00C94D007FA
:1000D00060E081E00C94D30762E081E00C94BD07FE
:1000E00062E081E00C94D60762E081E00C94D007D6
:1000F00062E081E00C94D30761E081E00C94BD07DD
:1001000061E081E00C94D60761E081E00C94D007B7
:1001100061E081E00C94D30760E080E00E949803E6
:1001200062E080E00E94980361E080E00E94980312
:1001300080E00E94450365E083E00E94A80766E036
:1001400083E00E94A80764E083E00E94A80760E0C3
:1001500081E00E94BD0760E081E00E94D30762E079
:1001600081E00E94BD0762E081E00E94D30761E068
:1001700081E00E94BD0761E081E00E94D30781E039
:100180000E9426060E947F0460E089E490E00C94BF
:10019000840360E080E00E94AB03811117C060E03F
:1001A00081E00E94D6078FE39CE90197F1F700C038
:1001B000000060E080E00E94AB038115D1F38FE383
:1001C0009CE90197F1F700C00000089562E080E02B
:1001D0000E94AB03811106C061E081E00E94080922
:1001E0008130E9F461E080E00E94AB038111089561
:1001F00062E081E00E9408098130C9F361E081E09A
:100200000E94D6078FE39CE90197F1F700C0000038
:1002100061E080E00E94AB038115D1F3D0CF62E0B2
:1002200081E00E94D6078FE39CE90197F1F700C0B7
:10023000000062E080E00E94AB038115D1F38FE300
:100240009CE90197F1F700C000000895CF93DF9378
:1002500000D0CDB7DEB789836A8341E060E080E0FB
:100260000E94FC0661E086E790E00E94D80641E02B
:1002700068E080E00E94FC062981622F70E080E047
:1002800090E041E00E941C0761E08EE790E00E9450
:10029000D80641E060E081E00E94FC0661E083E86E
:1002A00090E00E94D80641E068E081E00E94FC06F0
:1002B0002A81622F70E080E090E041E00E941C07FC
:1002C00061E08BE890E00F900F90DF91CF910C945C
:1002D000D806CF93DF93EC0188819B81981730F586
:1002E0009A8161E0891788F481E00E94D30762E077
:1002F00081E00E94D30789819C8160E0981788F093
:1003000081E0DF91CF910C94D00781E00E94D0076B
:1003100062E081E00E94D30789819C8160E09817A8
:1003200078F781E0DF91CF910C94D30761E081E011
:100330000E94D30762E081E00E94D007DCCFCF9318
:10034000DF93EC0188819D81981758F59E8141E0EB
:1003500065E0891798F483E00E94B10741E066E008
:1003600083E00E94B10789819F8141E064E0981792
:1003700098F083E0DF91CF910C94AB0783E00E946B
:10038000B10741E066E083E00E94AB0789819F816D
:1003900041E064E0981768F783E0DF91CF910C9417
:1003A000B10741E065E083E00E94AB0741E066E011
:1003B00083E00E94B107D7CFFC0180819581981717
:1003C00050F49681891738F481E0918127812917AB
:1003D00018F480E0089581E00895CF938091E800BB
:1003E0009091E700892B09F47FC00E94C504C82FB3
:1003F0008F3F49F00E94C5048F3FE1F78091E800EC
:10040000813088F111F0CF91089580ED8C0F8A3002
:10041000C0F1C33419F1C332B1F78091E6008130E5
:1004200009F47DC0823009F47FC0833021F48091CB
:10043000E4008093660081E00E94110761E089EB8F
:1004400090E00E94D8062FEF89E698E12150804085
:100450009040E1F700C000001092E2001092E80026
:100460001092E700D0CF8FEC8C0F843050F1C33462
:1004700051F61092E3001092E70081E0CF910C94C6
:1004800011078091E4009091E5000A9708F0BBCF36
:1004900061E08C2F0E9474052091E4003091E5000A
:1004A000C901880F991F880F991F820F931F880F0A
:1004B000991FC0978C0F911D8093E4009093E500E5
:1004C000A2CFC053C093E6001092E4001092E50062
:1004D00081E00E94110761E08FEA90E00E94D80657
:1004E00081E08093E8008FCF81E00E94110741E016
:1004F00060E080E00E94FC0661E080E990E00E94FC
:10050000D80641E060E081E00E94FC0661E080EAFC
:1005100090E00E94D80681E08093E70066CF80914A
:10052000E4008093640087CF8091E40080936500AD
:1005300082CF8091600090916100883C910508F025
:1005400094C08091620090916700981718F590917F
:1005500068008917F8F480916300909169009817FA
:10056000C8F48091E2008230C1F41092E20041E0D0
:1005700065E083E00E94B10741E066E083E00E940D
:10058000B10741E064E083E00E94B10781E00E948E
:10059000110703C082E08093E2008091E2008115A0
:1005A00009F44FC08091E200813009F45BC08230D1
:1005B000A1F0811136C060916300809162000E94B9
:1005C00026018091E300811509F45AC08091E3006F
:1005D000813039F50E94C90024C041E060E080E02C
:1005E0000E94FC0661E080EC90E00E94D80641E0A9
:1005F00060E081E00E94FC0661E081ED90E00E94F5
:10060000D80660E081E00E94D30762E081E00E94AA
:10061000D30761E081E00E94D30782E690E00E9468
:100620009F018FE19EE40197F1F700C000008091E7
:10063000600090916100019680936000909361004A
:1006400008950E94C504833409F0ACCF81E0809303
:10065000E2000E94C5048F3FE1F78091E200813003
:1006600009F0A5CF0E94ED01DCCF63E670E082E6E1
:1006700090E00E941604109260001092610061CF19
:1006800082E690E00E946901CCCF813020F049F1F0
:100690008230A1F0089540E062E083E00E942708E4
:1006A00041E062E083E00E94990862E080E00E94FD
:1006B000640980E00E94BC090C94730A40E062E087
:1006C00081E00E94270841E062E081E00E949908F1
:1006D00062E082E00E94640982E00E94BC090C94FE
:1006E000730A40E063E083E00E94270841E063E092
:1006F00083E00E94990862E081E00E94640981E041
:100700000E94BC090C94730A009729F0613020F014
:1007100059F0623029F00895BC0180E00C94E009A2
:10072000BC0182E00C94E009BC0181E00C94E0097A
:10073000CF93DF9300D0CDB7DEB789836A8340E0E3
:100740000E94270841E06A8189810F900F90DF9114
:10075000CF910C9499080C94080941E067E083E07C
:100760000E94270840E067E083E00E9499088FE13B
:100770009EE40197F1F700C0000041E067E083E0EC
:100780000E9499089AE69A95F1F700C040E067E068
:1007900083E00C942708CF93DF930F92CDB7DEB799
:1007A0008AE68A95F1F700C067E083E00E940809B5
:1007B000811561F0198267E083E00E9408098130A9
:1007C000D1F389810F90DF91CF91089595ED9A959E
:1007D000F1F7000067E083E00E94080991E0998347
:1007E000813041F7E8CFCF93DF93C8E0D0E067E0F6
:1007F00083E00E9408098115D1F38AE68A95F1F712
:1008000000C0DD0F67E083E00E940809813031F00D
:10081000C15069F78D2FDF91CF910895D16067E0C6
:1008200083E00E9408098130D1F3F2CFEF92FF926A
:100830000F931F93CF93DF93CDB7DEB729970FB6F2
:10084000F894DEBF0FBECDBF8E839F836887798704
:100850000E94AD030E94CB038115C9F08E010F5F8A
:100860001F4F7E0186E0E80EF11C0E94F303F801A1
:1008700081938F01EE15FF05C1F789819A81890F58
:100880009B81890F9C81890F9D81981771F080E071
:1008900029960FB6F894DEBF0FBECDBFDF91CF9182
:1008A0001F910F91FF90EF9008950B811C811027ED
:1008B0000127102769817A8176276727762780E0CC
:1008C00090E00E94320C20E030E040E251E40E94CF
:1008D000910B0E94030CE885F9856083B80180E0E4
:1008E00090E00E94320C20E030E040E251E40E94AF
:1008F000910B0E94030CEE81FF816083C9CF40E021
:1009000060E083E00E94270840E061E083E00E940D
:10091000270840E063E083E00E94270841E060E0B0
:1009200083E00E94990841E061E083E00E94990819
:1009300041E063E083E00E94990841E063E081E0E8
:100940000E94270841E064E081E00E94270841E01E
:1009500065E081E00E94270841E066E081E00E94B6
:10096000270841E063E081E00E94990841E064E0EB
:1009700081E00E94990841E065E081E00E949908C9
:1009800041E066E081E00C9499082F923F924F92EB
:100990005F926F927F928F929F92AF92BF92CF920F
:1009A000DF92EF92FF920F931F93CF93DF93CDB718
:1009B000DEB72E970FB6F894DEBF0FBECDBF81E035
:1009C00091E08D839E838F83988783E094E0898371
:1009D0009A8385E096E08B839C8383E093E08C8709
:1009E0009D878E8731E019863A878B874E012FEFDE
:1009F000821A920A5E0185E0A80EB11CC12CD12C8E
:100A0000F4013080F501408040E0632D842D0E9488
:100A10009908CE0109967C018E01045F1F4F612C5D
:100A2000712CF7012080F8015080622D852D0E94E5
:100A300008098115C9F19FEFE91AF90A0F5F1F4FE5
:100A4000EFEF6E1A7E0AF3E06F16710451F72FEF85
:100A5000821A920A8FEFA81AB80A41E0632D842DFA
:100A60000E9499089FEFC91AD90AE4E0CE16D10472
:100A700039F61FEF812F2E960FB6F894DEBF0FBE0A
:100A8000CDBFDF91CF911F910F91FF90EF90DF903D
:100A9000CF90BF90AF909F908F907F906F905F901E
:100AA0004F903F902F900895C601880F991F8C0D8D
:100AB0009D1D86599F4FFC01E60DF71D1081622D8B
:100AC000852D0E9408098115D1F3FFE728E381E015
:100AD000F15020408040E1F700C0000041E0632D6C
:100AE000842D0E949908C6CFCF93DF930F92CDB784
:100AF000DEB78983613081F158F5C09AC19888B317
:100B00008F709981907F892B88BBC29A8FEC97E078
:100B10000197F1F700C00000C2988FEC97E00197B1
:100B2000F1F700C0000098B389818295807F9F70A3
:100B3000892B88BBC29A8FEC97E00197F1F700C030
:100B40000000C2988FE99FE00197F1F700C0000014
:100B50000F90DF91CF91089541E065E080E00E9421
:100B6000990840E066E080E00E949908698182E08F
:100B70000E94F80841E067E080E00E9499088FEC4D
:100B800097E00197F1F700C0000040E067E080E0E7
:100B90000F90DF91CF910C949908CF93DF930F9230
:100BA000CDB7DEB78983613081F158F5C098C1981F
:100BB00088B38F709981907F892B88BBC29A8FEC04
:100BC00097E00197F1F700C00000C2988FEC97E022
:100BD0000197F1F700C0000098B389818295807F6A
:100BE0009F70892B88BBC29A8FEC97E00197F1F731
:100BF00000C00000C2988FE99FE00197F1F700C0A4
:100C000000000F90DF91CF91089540E065E080E013
:100C10000E94990840E066E080E00E94990869819E
:100C200082E00E94F80841E067E080E00E949908B5
:100C30008FEC97E00197F1F700C0000040E067E01B
:100C400080E00F90DF91CF910C949908813009F4E6
:100C50006AC008F0089541E065E00E94270841E07D
:100C600066E080E00E94270841E067E080E00E94A3
:100C7000270841E064E082E00E94270841E065E047
:100C800082E00E94270841E066E082E00E94270897
:100C900041E067E082E00E9427089FEB2AED80E0B8
:100CA000915020408040E1F700C0000060E083E305
:100CB0000E94CD058FE097E20197F1F700C0000098
:100CC00060E082E30E94CD058FEC97E00197F1F799
:100CD00000C0000060E088E20E94CD058FEC97E044
:100CE0000197F1F700C0000060E086E00E94CD05AA
:100CF0008FEC97E00197F1F700C0000060E081E021
:100D00000E94CD058FE99FE00197F1F700C0000038
:100D100060E084E00E94CD058FEC97E00197F1F749
:100D200000C00000089541E065E080E00E942708CF
:100D300041E066E080E00E94270841E067E080E053
:100D40000E9427086FEF82E00E9489082FEB8AED4E
:100D500090E0215080409040E1F700C0000061E049
:100D600088E30E94CD058FEC97E00197F1F700C072
:100D7000000061E08CE00E94CD058FEC97E00197C8
:100D8000F1F700C0000061E081E00E94CD058FE92D
:100D90009FE00197F1F700C0000061E086E00E944B
:100DA000CD058FEC97E00197F1F700C000000895A2
:100DB0000F931F93CF93DF9300D0CDB7DEB78C0195
:100DC0006983009791F0FC018081811571F01A828E
:100DD00069810E947405FA81FF5FFA83F8018A81B4
:100DE000E80FF11D80818111F3CF0F900F90DF91FB
:100DF000CF911F910F910895813080F069F480E4C4
:100E0000860F8068642F0E94CD058FEC97E00197D4
:100E1000F1F700C00000089580E8F4CF862F8068C5
:100E2000F1CF682F81E00E94CD058FE99FE0019707
:100E3000F1F700C0000008954F925F926F927F9289
:100E40008F929F92AF92BF92CF92DF92EF92FF92DA
:100E50000F931F93CF93DF93CDB7DEB72B970FB6CA
:100E6000F894DEBF0FBECDBF6B017C014B87C11470
:100E7000D104E104F10409F451C064F46B858DE2FE
:100E80000E947405F094E094D094C094C11CD11CCD
:100E9000E11CF11C4E018FEF881A980A540100E002
:100EA00010E038018AE0482E512CB601C7019201AA
:100EB000A3010E94500B605DF50161935F01690120
:100EC0007A01C8010F5F1F4FC114D104E104F1047E
:100ED00061F784010F5F1F4F080F191F6B85F80121
:100EE00082918F010E94740580169106B9F72B96A6
:100EF0000FB6F894DEBF0FBECDBFDF91CF911F912B
:100F00000F91FF90EF90DF90CF90BF90AF909F90A8
:100F10008F907F906F905F904F900895642F80E343
:100F20002B960FB6F894DEBF0FBECDBFDF91CF91E9
:100F30001F910F91FF90EF90DF90CF90BF90AF90F7
:100F40009F908F907F906F905F904F900C9474055E
:100F500041E00C942708413011F008F008950C94FA
:100F60009908413029F008F0089541E00C9499085F
:100F700040E00C9499080C943809CF93DF9300D08B
:100F8000CDB7DEB789836A8341E00E94270840E03D
:100F90006A8189810F900F90DF91CF910C9499080D
:100FA00041E00C94990840E00C9499080C9438099D
:100FB000CF93DF9300D000D00F92CDB7DEB7498337
:100FC0005A836B837C83282F8D834130D0F43F98E4
:100FD0003E985130E9F030F17130E9F008F12130FC
:100FE000E9F008F4359896B1987F8B81892B86B902
:100FF000379A0F900F900F900F900F90DF91CF9135
:10100000089591F0423029F73F9A3E9A513019F7EE
:101010003D9A713019F7339A213019F7359AE3CF99
:101020003398DDCF3D98D8CF3F983E9AD2CF97B135
:10103000907E892B87B9369A089597B1907E892B37
:1010400087B9369A86B1349A84B195B10895413002
:10105000F9F0E8F4823009F446C068F4811509F427
:101060004CC027B381E001C0880F6A95EAF78095EC
:10107000822387BB0895833009F04AC021B381E001
:1010800001C0880F6A95EAF78095822381BB089595
:101090008230B9F058F48115E9F087B321E001C03E
:1010A000220F6A95EAF7822B87BB0895833079F582
:1010B00081B321E001C0220F6A95EAF7822B81BB40
:1010C000089584B321E001C0220F6A95EAF7822BCC
:1010D00084BB08958AB321E001C0220F6A95EAF724
:1010E000822B8ABB089524B381E001C0880F6A95E2
:1010F000EAF78095822384BB08952AB381E001C07A
:10110000880F6A95EAF7809582238ABB089508952F
:101110000895823049F020F4811541F067BB0895AD
:10112000833031F461BB089564BB08956ABB0895B0
:101130000895413051F040F4813000F191F1823056
:1011400009F44CC08330B9F10895813070F001F199
:101150008230D9F18330C1F782B321E001C0220F80
:101160006A95EAF7822B82BB08958BB321E001C018
:10117000220F6A95EAF7822B8BBB08952BB381E08F
:1011800001C0880F6A95EAF7809582238BBB08958A
:1011900088B321E001C0220F6A95EAF7822B88BB51
:1011A000089528B381E001C0880F6A95EAF7809519
:1011B000822388BB089522B381E001C0880F6A951D
:1011C000EAF78095822382BB089585B321E001C0B0
:1011D000220F6A95EAF7822B85BB089525B381E03B
:1011E00001C0880F6A95EAF78095822385BB089530
:1011F000823049F020F4811541F068BB08958330B6
:1012000031F462BB089565BB08956BBB08950895E2
:10121000843088F4683078F4823009F18330B1F09A
:10122000813059F089B390E002C0959587956A9511
:10123000E2F78170089580E0089586B390E002C0DF
:10124000959587956A95E2F78170089580B390E04F
:1012500002C0959587956A95E2F78170089583B3EA
:1012600090E002C0959587956A95E2F781700895A0
:10127000813048F48BB321E001C0220F6A95EAF770
:1012800082278BBB089529F08230A9F0833051F07A
:10129000089588B321E001C0220F6A95EAF78227FA
:1012A00088BB089582B321E001C0220F6A95EAF756
:1012B000822782BB089585B321E001C0220F6A9581
:1012C000EAF7822785BB0895813070F46230F1F02F
:1012D000633091F1613049F150F485B78E7F85BF5D
:1012E00085B78D7F85BF089519F08230B1F00895DC
:1012F000623049F16330A9F1613061F1C0F785B71F
:101300008B7F85BF85B7877F85BF089585B78E7F23
:1013100085BF85B7826085BF0895623049F163302B
:1013200031F784B7806484BF089585B7816085BF35
:1013300085B78D7F85BF089585B7816085BF85B7E7
:10134000826085BF089585B78B7F85BF85B788602C
:1013500085BF089585B7846085BF85B7877F85BFC2
:10136000089585B7846085BF85B7886085BF089577
:1013700084B78F7B84BF0895813020F48BB780645D
:101380008BBF089519F0823029F008958BB78068DB
:101390008BBF08958BB780628BBF0895813020F496
:1013A0008BB78F7B8BBF089519F0823029F0089599
:1013B0008BB78F778BBF08958BB78F7D8BBF0895C9
:1013C0006115710529F0813020F069F0823031F02B
:1013D00008956093ED007093EE0008956093E90026
:1013E0007093EA0008956093EB007093EC00089509
:1013F0001F920F920FB60F9211242F933F934F938A
:101400005F936F937F938F939F93AF93BF93EF936C
:10141000FF93E091ED00F091EE00309709F009950F
:10142000FF91EF91BF91AF919F918F917F916F91BC
:101430005F914F913F912F910F900FBE0F901F9092
:1014400018951F920F920FB60F9211242F933F936E
:101450004F935F936F937F938F939F93AF93BF93BC
:10146000EF93FF93E091EB00F091EC00309709F0DF
:101470000995FF91EF91BF91AF919F918F917F91CE
:101480006F915F914F913F912F910F900FBE0F90F1
:101490001F9018951F920F920FB60F9211242F9341
:1014A0003F934F935F936F937F938F939F93AF93EC
:1014B000BF93EF93FF93E091E900F091EA0030973A
:1014C00009F00995FF91EF91BF91AF919F918F9195
:1014D0007F916F915F914F913F912F910F900FBE30
:1014E0000F901F9018958FB780688FBF08958FB7A2
:1014F0008F778FBF0895CF93DF9300D000D00F92E6
:10150000CDB7DEB749835A836B837C838D834130AB
:1015100081F198F483B78F7B83BF83B7806283BFE9
:101520008C818CBF89B7826089BF0F900F900F901C
:101530000F900F90DF91CF9108958D81423061F12E
:10154000433099F793B7906493BF93B79F7D93BF50
:10155000813050F583B7877F83BF83B7806183BFB6
:101560001CBE0F900F900F900F900F90DF91CF91B6
:10157000089583B78F7B83BF83B78F7D83BF8B81B4
:1015800084BF89B7816089BF0F900F900F900F9033
:101590000F90DF91CF91089593B7906493BF93B765
:1015A000906293BF8130B0F2D9F683B7886083BF71
:1015B00083B7806183BF1CBED4CF811521F093B760
:1015C000987F892B83BF089583B7887F83BF089551
:1015D0006115710541F0813028F46093F10070933A
:1015E000F200089509F008956093EF007093F00001
:1015F00008951F920F920FB60F9211242F933F93CD
:101600004F935F936F937F938F939F93AF93BF930A
:10161000EF93FF93E091EF00F091F000309709F025
:101620000995FF91EF91BF91AF919F918F917F911C
:101630006F915F914F913F912F910F900FBE0F903F
:101640001F9018951F920F920FB60F9211242F938F
:101650003F934F935F936F937F938F939F93AF933A
:10166000BF93EF93FF93E091F100F091F200309778
:1016700009F00995FF91EF91BF91AF919F918F91E3
:101680007F916F915F914F913F912F910F900FBE7E
:101690000F901F9018950E948C000E949902FDCF18
:1016A000052E97FB1EF400940E94670B57FD07D090
:1016B0000E946F0B07FC03D04EF40C94670B5095FF
:1016C0004095309521953F4F4F4F5F4F089590952E
:1016D0008095709561957F4F8F4F9F4F0895A1E240
:1016E0001A2EAA1BBB1BFD010DC0AA1FBB1FEE1F9C
:1016F000FF1FA217B307E407F50720F0A21BB30BE7
:10170000E40BF50B661F771F881F991F1A9469F762
:1017100060957095809590959B01AC01BD01CF01BE
:1017200008950E94A50B0C94860C0E947F0C58F023
:101730000E94780C40F029F45F3F29F00C946F0C64
:1017400051110C94BA0C0C94750C0E94970C68F310
:101750009923B1F3552391F3951B550BBB27AA276A
:1017600062177307840738F09F5F5F4F220F331FA4
:10177000441FAA1FA9F335D00E2E3AF0E0E832D06C
:1017800091505040E695001CCAF72BD0FE2F29D06F
:10179000660F771F881FBB1F261737074807AB0741
:1017A000B0E809F0BB0B802DBF01FF2793585F4FB6
:1017B0003AF09E3F510578F00C946F0C0C94BA0CE3
:1017C0005F3FE4F3983ED4F3869577956795B79598
:1017D000F7959F5FC9F7880F911D9695879597F9A3
:1017E0000895E1E0660F771F881FBB1F621773071C
:1017F0008407BA0720F0621B730B840BBA0BEE1F31
:1018000088F7E09508950E949F0C88F09F5798F004
:10181000B92F9927B751B0F0E1F0660F771F881FF5
:10182000991F1AF0BA95C9F714C0B13091F00E940F
:10183000B90CB1E008950C94B90C672F782F882764
:10184000B85F39F0B93FCCF3869577956795B39536
:10185000D9F73EF490958095709561957F4F8F4FA5
:101860009F4F0895E89409C097FB3EF490958095AA
:10187000709561957F4F8F4F9F4F9923A9F0F92F56
:1018800096E9BB279395F695879577956795B795D4
:10189000F111F8CFFAF4BB0F11F460FF1BC06F5FBA
:1018A0007F4F8F4F9F4F16C0882311F096E911C0CC
:1018B000772321F09EE8872F762F05C0662371F0ED
:1018C00096E8862F70E060E02AF09A95660F771F01
:1018D000881FDAF7880F9695879597F9089597F9F5
:1018E0009F6780E870E060E008959FEF80EC0895C6
:1018F00000240A94161617061806090608950024EF
:101900000A9412161306140605060895092E039468
:10191000000C11F4882352F0BB0F40F4BF2B11F4DC
:1019200060FF04C06F5F7F4F8F4F9F4F089557FD3B
:101930009058440F551F59F05F3F71F04795880F3D
:1019400097FB991F61F09F3F79F0879508951216D4
:1019500013061406551FF2CF4695F1DF08C0161680
:1019600017061806991FF1CF869571056105089431
:101970000895E894BB2766277727CB0197F9089548
:04198000F894FFCF09
:10198400C80000002814190A320A373839343536A9
:1019940031323323304354656D70203A20002043A4
:1019A40020200048756D69643A200020252020001D
:1019B400312D4D6178205420322D4D696E20540014
:1019C400332D4D696E2048756D6964697479004ED4
:1019D40065772056616C3A20005361766564210076
:1019E40053595354454D20454D455247454E43594F
:1019F4000020202020202020202020202020202003
:021A04002000C0
:00000001FF
