:100000000C942A000C9435060C945E060C9487061A
:100010000C9447000C9447000C9447000C94470044
:100020000C9447000C9447000C9444070C946D0703
:100030000C9447000C9447000C9447000C94470024
:100040000C9447000C9447000C9447000C94470014
:100050000C94470011241FBECFE5D8E0DEBFCDBF12
:1000600010E0A0E6B0E0E0E3FFE002C005900D92F2
:10007000AC36B107D9F720E0ACE6B0E001C01D9284
:10008000A737B207E1F70E9453000C9496070C942F
:10009000000060E081E00E949D03089560E081E03F
:1000A0000E94B903089560E080E00E94CA000E94A7
:1000B000490060E080E00E94DE008111FACF0E94DA
:1000C0004E008FE39CE90197F1F700C0000060E06B
:1000D00080E00E94DE008115D1F38FE39CE9019757
:1000E000F1F700C00000E5CF813020F0A9F08230A8
:1000F00029F1089540E062E083E00E94280441E095
:1001000062E083E00E94B20462E080E00E949F050A
:1001100080E00E94F705089540E063E083E00E94DC
:10012000280441E063E083E00E94B20462E081E0E1
:100130000E949F0581E00E94F705089540E062E07B
:1001400081E00E94280441E062E081E00E94B20464
:1001500062E082E00E949F0582E00E94F705089518
:10016000282F392F2115310529F0613020F041F079
:10017000623059F00895B90180E00E941B0608958D
:10018000B90181E00E941B060895B90182E00E9436
:100190001B060895CF93DF9300D0CDB7DEB78983D8
:1001A0006A8340E00E94280441E06A8189810E94BC
:1001B000B2040F900F90DF91CF9108950E94330504
:1001C000089540E062E083E00E94280440E061E09E
:1001D00083E00E94280440E060E083E00E9428045D
:1001E00041E062E083E00E94B20441E061E083E02C
:1001F0000E94B20441E060E083E00E94B20441E06A
:1002000060E081E00E94280441E061E081E00E941A
:10021000280441E062E081E00E94280441E063E0BC
:1002200081E00E94280441E060E081E00E94B20485
:1002300041E061E081E00E94B20441E062E081E0DF
:100240000E94B20441E063E081E00E94B20408959C
:10025000CF93DF9300D00F92CDB7DEB71B8238C0AB
:100260002A812F5F2A838A81833050F56A8183E057
:100270000E9433058111F4CF2B81822F90E0FC0185
:10028000EE0FFF1FE80FF91FE05AFF4F8A81E80FBA
:10029000F11D908199836A8183E00E943305811565
:1002A000D1F32FE788E391E0215080409040E1F7BF
:1002B00000C0000041E06B8181E00E94B20414C0E4
:1002C00041E06B8181E00E94B2049B819F5F9B8330
:1002D0002B81243038F440E06B8181E00E94B2042D
:1002E0001A82C1CF8FEF898389810F900F900F9071
:1002F000DF91CF910895CF93DF930F92CDB7DEB703
:1003000089836130E1F1B8F588B3816088BB88B337
:100310008D7F88BB88B38F709981907F892B88BB34
:1003200088B3846088BB8FEC97E00197F1F700C039
:10033000000088B38B7F88BB8FEC97E00197F1F7C3
:1003400000C0000098B389818295807F9F70892BBF
:1003500088BB88B3846088BB8FEC97E00197F1F786
:1003600000C0000088B38B7F88BB8FE99FE00197B6
:10037000F1F700C000000F90DF91CF91089541E0A8
:1003800060E080E00E94B20440E061E080E00E9412
:10039000B204698182E00E94210541E062E080E0D0
:1003A0000E94B2048FEC97E00197F1F700C00000C3
:1003B00040E062E080E00E94B204DDCFCF93DF93A3
:1003C0000F92CDB7DEB789836130E1F1B8F588B31C
:1003D0008E7F88BB88B38D7F88BB88B38F709981EF
:1003E000907F892B88BB88B3846088BB8FEC97E0B3
:1003F0000197F1F700C0000088B38B7F88BB8FECBA
:1004000097E00197F1F700C0000098B389818295C9
:10041000807F9F70892B88BB88B3846088BB8FECFA
:1004200097E00197F1F700C0000088B38B7F88BB8D
:100430008FE99FE00197F1F700C000000F90DF9176
:10044000CF91089540E060E080E00E94B20440E077
:1004500061E080E00E94B204698182E00E9421058F
:1004600041E062E080E00E94B2048FEC97E00197E7
:10047000F1F700C0000040E062E080E00E94B204BA
:10048000DDCF813019F008F446C0089541E060E006
:1004900080E00E94280441E061E080E00E9428049E
:1004A00041E062E080E00E9428046FEF82E00E9459
:1004B000A0042FEB8AED90E0215080409040E1F7BE
:1004C00000C0000061E088E30E94DE018FEC97E04D
:1004D0000197F1F700C0000061E08EE00E94DE01AC
:1004E0008FEC97E00197F1F700C0000061E081E038
:1004F0000E94DE018FE99FE00197F1F700C0000044
:1005000061E086E00E94DE018FEC97E00197F1F751
:1005100000C00000089541E060E00E94280441E02E
:1005200061E080E00E94280441E062E080E00E94F7
:10053000280441E064E082E00E94280441E065E094
:1005400082E00E94280441E066E082E00E942804E4
:1005500041E067E082E00E9428049FEB2AED80E002
:10056000915020408040E1F700C0000060E083E34C
:100570000E94DE018FE097E20197F1F700C00000D2
:1005800060E082E30E94DE018FEC97E00197F1F7D3
:1005900000C0000060E088E20E94DE018FEC97E07E
:1005A0000197F1F700C0000060E086E00E94DE01E4
:1005B0008FEC97E00197F1F700C0000060E081E068
:1005C0000E94DE018FE99FE00197F1F700C0000073
:1005D00060E084E00E94DE018FEC97E00197F1F784
:1005E00000C0000008950F931F93CF93DF9300D0B6
:1005F000CDB7DEB7082F192F69830115110579F0E2
:100600001A8206C069810E947B018A818F5F8A837A
:10061000F8018A81E80FF11D80818111F3CF0F90DD
:100620000F90DF91CF911F910F910895982F862FF2
:10063000642F913010F059F4805C80680E94DE01D4
:100640008FEC97E00197F1F700C00000089580E07B
:10065000F4CF61E081E00E94DE018FE99FE0019725
:10066000F1F700C0000008950F931F93CF93DF931D
:10067000CDB7DEB72B970FB6F894DEBF0FBECDBF58
:100680006B87811519F000E010E01CC080E30E9428
:100690007B012BC09DEC899F912D112496959695F9
:1006A0009695292F220F220F290F220F821B805D82
:1006B000E1E0F0E0EC0FFD1FE00FF11F8083892FD8
:1006C0000F5F1F4F8111E6CF015011090CC0E1E00F
:1006D000F0E0EC0FFD1FE00FF11F6B8580810E94A1
:1006E0007B0101501109112394F72B960FB6F89452
:1006F000DEBF0FBECDBFDF91CF911F910F91089547
:1007000041E00E9428040895413011F020F008953E
:100710000E94B20408950E94B2040895413011F07D
:1007200028F0089540E00E94B204089541E00E943C
:10073000B20408950E946B050895CF93DF9300D013
:10074000CDB7DEB789836A8341E00E94280440E088
:100750006A8189810E94B2040F900F90DF91CF913E
:10076000089541E00E94B204089540E00E94B2045E
:1007700008950E946B050895CF93DF9300D000D0B9
:100780000F92CDB7DEB749835A836B837C838D8309
:10079000413070F487B18F7787B987B18F7B87B984
:1007A0008A818130B1F0C0F487B18F7D87B914C0E0
:1007B00049F04230A9F787B1806887B987B1806472
:1007C00087B9EECF87B18F7787B987B1806487B952
:1007D000E7CF87B1806287B98C81813029F038F406
:1007E00086B1877F86B903C086B1886086B98D815E
:1007F000813029F038F486B18F7D86B903C086B187
:10080000806286B996B18B81987F892B86B986B133
:10081000806886B90F900F900F900F900F90DF9126
:10082000CF91089597B1907E892B87B986B1806466
:1008300086B9089597B1907E892B87B986B1806477
:1008400086B986B186B1806186B984B195B10895C3
:100850004130C1F008F05AC0823009F465C008F098
:1008600048C0813008F454C009F042C027B381E089
:1008700090E002C0880F991F6A95E2F78095822365
:1008800087BB0895823049F178F48130D8F059F46B
:1008900087B321E030E002C0220F331F6A95E2F7F0
:1008A000822B87BB08950895833059F481B321E0EA
:1008B00030E002C0220F331F6A95E2F7822B81BB22
:1008C000089508958AB321E030E002C0220F331F5B
:1008D0006A95E2F7822B8ABB089584B321E030E069
:1008E00002C0220F331F6A95E2F7822B84BB089562
:1008F0000895833061F421B381E090E002C0880F55
:10090000991F6A95E2F78095822381BB0895089527
:100910002AB381E090E002C0880F991F6A95E2F740
:10092000809582238ABB089524B381E090E002C0C1
:10093000880F991F6A95E2F78095822384BB0895FA
:10094000823071F030F4813048F011F467BB0895C3
:100950000895833011F461BB089508956ABB08952A
:1009600064BB0895413081F008F5813008F040C043
:100970002BB381E090E002C0880F991F6A95E2F7DF
:10098000809582238BBB0895813058F48BB321E08E
:1009900030E002C0220F331F6A95E2F7822B8BBB37
:1009A000089529F0823071F08330B9F0089588B34A
:1009B00021E030E002C0220F331F6A95E2F7822B5C
:1009C00088BB089585B321E030E002C0220F331FB9
:1009D0006A95E2F7822B85BB089582B321E030E06F
:1009E00002C0220F331F6A95E2F7822B82BB089563
:1009F00081F08230D1F08330C9F622B381E090E0FB
:100A000002C0880F991F6A95E2F78095822382BB06
:100A1000089528B381E090E002C0880F991F6A957D
:100A2000E2F78095822388BB089525B381E090E0AA
:100A300002C0880F991F6A95E2F78095822385BBD3
:100A40000895823071F030F4813048F011F468BBC1
:100A500008950895833011F462BB089508956BBB27
:100A6000089565BB0895843090F5683090F5823024
:100A700029F170F48130C8F049F486B390E002C0E7
:100A8000959587956A95E2F78170089580E00895BD
:100A9000833049F480B390E002C0959587956A95BC
:100AA000E2F78170089580E0089589B390E002C074
:100AB000959587956A95E2F78170089583B390E0E4
:100AC00002C0959587956A95E2F78170089580E058
:100AD000089580E00895813058F48BB321E030E030
:100AE00002C0220F331F6A95E2F782278BBB08955D
:100AF00029F0823071F08330B9F0089588B321E095
:100B000030E002C0220F331F6A95E2F7822788BBCC
:100B1000089585B321E030E002C0220F331F6A95AB
:100B2000E2F7822785BB089582B321E030E002C05E
:100B3000220F331F6A95E2F7822782BB0895813026
:100B400018F5623061F0633089F06130B1F0F8F48B
:100B500085B78E7F85BF85B78D7F85BF089585B7A3
:100B60008E7F85BF85B7826085BF089585B7816018
:100B700085BF85B7826085BF089585B7816085BFD1
:100B800085B78D7F85BF089519F0823021F10895D2
:100B9000623061F0633089F06130B1F0C0F785B741
:100BA0008B7F85BF85B7877F85BF089585B78B7F8E
:100BB00085BF85B7886085BF089585B7846085BF88
:100BC00085B7886085BF089585B7846085BF85B780
:100BD000877F85BF0895623031F06330C1F684B7F6
:100BE000806484BF089584B78F7B84BF089581306B
:100BF00020F48BB780648BBF089519F0823029F000
:100C000008958BB780688BBF08958BB780628BBFC8
:100C10000895813020F48BB78F7B8BBF089519F036
:100C2000823029F008958BB78F778BBF08958BB7EB
:100C30008F7D8BBF0895262F372F2115310551F059
:100C4000813028F43093710020937000089519F0DA
:100C5000823031F0089530936F0020936E00089534
:100C600030936D0020936C0008951F920F920FB681
:100C70000F9211242F933F934F935F936F937F9322
:100C80008F939F93AF93BF93EF93FF93E091700087
:100C9000F0917100309709F00995FF91EF91BF91A4
:100CA000AF919F918F917F916F915F914F913F9104
:100CB0002F910F900FBE0F901F9018951F920F92BB
:100CC0000FB60F9211242F933F934F935F936F931F
:100CD0007F938F939F93AF93BF93EF93FF93E09195
:100CE0006E00F0916F00309709F00995FF91EF9138
:100CF000BF91AF919F918F917F916F915F914F9134
:100D00003F912F910F900FBE0F901F9018951F923B
:100D10000F920FB60F9211242F933F934F935F932F
:100D20006F937F938F939F93AF93BF93EF93FF93B3
:100D3000E0916C00F0916D00309709F00995FF91FA
:100D4000EF91BF91AF919F918F917F916F915F9143
:100D50004F913F912F910F900FBE0F901F901895BC
:100D60008FB780688FBF08958FB78F778FBF089533
:100D7000CF93DF9300D000D00F92CDB7DEB7498379
:100D80005A836B837C838D83413069F0F8F483B799
:100D90008F7B83BF83B7806283BF8C818CBF89B711
:100DA000826089BF0BC083B78F7B83BF83B78F7D82
:100DB00083BF8B8184BF89B7816089BF0F900F90FB
:100DC0000F900F900F90DF91CF9108954230A9F0CE
:100DD0004330A1F783B7806483BF83B78F7D83BF20
:100DE0008D81813040F583B7877F83BF83B7806172
:100DF00083BF109276001CBEE1CF83B7806483BFAF
:100E000083B7806283BF8D81813050F483B7877F41
:100E100083BF83B7806183BF109276001CBECECFA4
:100E2000E9F783B7886083BF83B7806183BF81E0C0
:100E300080937600F3CFF9F683B7886083BF83B7DA
:100E4000806183BF81E080937600D5CF811521F04A
:100E500093B7987F892B83BF089583B7887F83BF1B
:100E60000895262F372F2115310541F0813028F4C0
:100E70003093750020937400089509F0089530931D
:100E800073002093720008951F920F920FB60F9275
:100E900011242F933F934F935F936F937F938F937F
:100EA0009F93AF93BF93EF93FF93E0917200F09104
:100EB0007300309709F00995FF91EF91BF91AF91C1
:100EC0009F918F917F916F915F914F913F912F9162
:100ED0000F900FBE0F901F9018951F920F920FB694
:100EE0000F9211242F933F934F935F936F937F93B0
:100EF0008F939F93AF93BF93EF93FF93E091740011
:100F0000F0917500309709F00995FF91EF91BF912D
:100F1000AF919F918F917F916F915F914F913F9191
:100F20002F910F900FBE0F901F901895F894FFCF40
:0C0F300037383934353631323323302A5B
:00000001FF
